{
  "contractName": "Authorship",
  "abi": [
    {
      "constant": true,
      "inputs": [],
      "name": "claimCount",
      "outputs": [
        {
          "name": "",
          "type": "uint256"
        }
      ],
      "payable": false,
      "stateMutability": "view",
      "type": "function"
    },
    {
      "constant": true,
      "inputs": [
        {
          "name": "",
          "type": "uint256"
        }
      ],
      "name": "claims",
      "outputs": [
        {
          "name": "exists",
          "type": "bool"
        },
        {
          "name": "timestamp",
          "type": "uint256"
        },
        {
          "name": "submitter",
          "type": "address"
        },
        {
          "name": "name",
          "type": "string"
        }
      ],
      "payable": false,
      "stateMutability": "view",
      "type": "function"
    },
    {
      "anonymous": false,
      "inputs": [
        {
          "indexed": true,
          "name": "fileHash",
          "type": "uint256"
        },
        {
          "indexed": true,
          "name": "timestamp",
          "type": "uint256"
        },
        {
          "indexed": true,
          "name": "submitter",
          "type": "address"
        },
        {
          "indexed": false,
          "name": "name",
          "type": "string"
        }
      ],
      "name": "Claimed",
      "type": "event"
    },
    {
      "constant": false,
      "inputs": [
        {
          "name": "_fileHash",
          "type": "uint256"
        },
        {
          "name": "_timestamp",
          "type": "uint256"
        },
        {
          "name": "_name",
          "type": "string"
        }
      ],
      "name": "makeClaim",
      "outputs": [],
      "payable": false,
      "stateMutability": "nonpayable",
      "type": "function"
    },
    {
      "constant": true,
      "inputs": [
        {
          "name": "_fileHash",
          "type": "uint256"
        },
        {
          "name": "_timestamp",
          "type": "uint256"
        },
        {
          "name": "_address",
          "type": "address"
        },
        {
          "name": "_name",
          "type": "string"
        }
      ],
      "name": "verifyClaim",
      "outputs": [
        {
          "name": "",
          "type": "bool"
        }
      ],
      "payable": false,
      "stateMutability": "view",
      "type": "function"
    }
  ],
  "bytecode": "0x608060405261012c600255601e60035534801561001b57600080fd5b5061088c8061002b6000396000f300608060405260043610610062576000357c0100000000000000000000000000000000000000000000000000000000900463ffffffff16806327a72383146100675780638da4d3c9146100b6578063a888c2cd146100e1578063cd0388a4146101cc575b600080fd5b34801561007357600080fd5b506100b46004803603810190808035906020019092919080359060200190929190803590602001908201803590602001919091929391929390505050610281565b005b3480156100c257600080fd5b506100cb61045c565b6040518082815260200191505060405180910390f35b3480156100ed57600080fd5b5061010c60048036038101908080359060200190929190505050610462565b60405180851515151581526020018481526020018373ffffffffffffffffffffffffffffffffffffffff1673ffffffffffffffffffffffffffffffffffffffff16815260200180602001828103825283818151815260200191508051906020019080838360005b8381101561018e578082015181840152602081019050610173565b50505050905090810190601f1680156101bb5780820380516001836020036101000a031916815260200191505b509550505050505060405180910390f35b3480156101d857600080fd5b506102676004803603810190808035906020019092919080359060200190929190803573ffffffffffffffffffffffffffffffffffffffff169060200190929190803590602001908201803590602001908080601f0160208091040260200160405190810160405280939291908181526020018383808284378201915050505050509192919290505050610557565b604051808215151515815260200191505060405180910390f35b600061028c8461060a565b151561029757600080fd5b60008086815260200190815260200160002090508060000160009054906101000a900460ff161515156102c957600080fd5b6080604051908101604052806001151581526020018581526020013373ffffffffffffffffffffffffffffffffffffffff16815260200184848080601f01602080910402602001604051908101604052809392919081815260200183838082843782019150505050505081525060008087815260200190815260200160002060008201518160000160006101000a81548160ff0219169083151502179055506020820151816001015560408201518160020160006101000a81548173ffffffffffffffffffffffffffffffffffffffff021916908373ffffffffffffffffffffffffffffffffffffffff16021790555060608201518160030190805190602001906103d59291906107bb565b509050506001600081548092919060010191905055503373ffffffffffffffffffffffffffffffffffffffff1684867f8c7fd1357836ed234b827af22329d5ea681dcc8780e37cf474a620b18b3195438686604051808060200182810382528484828181526020019250808284378201915050935050505060405180910390a45050505050565b60015481565b60006020528060005260406000206000915090508060000160009054906101000a900460ff16908060010154908060020160009054906101000a900473ffffffffffffffffffffffffffffffffffffffff1690806003018054600181600116156101000203166002900480601f01602080910402602001604051908101604052809291908181526020018280546001816001161561010002031660029004801561054d5780601f106105225761010080835404028352916020019161054d565b820191906000526020600020905b81548152906001019060200180831161053057829003601f168201915b5050505050905084565b60008060008087815260200190815260200160002090508060000160009054906101000a900460ff16801561058f5750848160010154145b80156105ea57508373ffffffffffffffffffffffffffffffffffffffff168160020160009054906101000a900473ffffffffffffffffffffffffffffffffffffffff1673ffffffffffffffffffffffffffffffffffffffff16145b80156105ff57506105fe8160030184610638565b5b915050949350505050565b600080429050808311156106275760035481840311159150610632565b600254838203111591505b50919050565b6000806060600085925084915081518380546001816001161561010002031660029004905014151561066d57600093506107b2565b600090505b828054600181600116156101000203166002900490508110156107ad57818181518110151561069d57fe5b9060200101517f010000000000000000000000000000000000000000000000000000000000000090047f0100000000000000000000000000000000000000000000000000000000000000027effffffffffffffffffffffffffffffffffffffffffffffffffffffffffffff19168382815460018160011615610100020316600290048110151561072957fe5b8154600116156107485790600052602060002090602091828204019190065b9054901a7f0100000000000000000000000000000000000000000000000000000000000000027effffffffffffffffffffffffffffffffffffffffffffffffffffffffffffff19161415156107a057600093506107b2565b8080600101915050610672565b600193505b50505092915050565b828054600181600116156101000203166002900490600052602060002090601f016020900481019282601f106107fc57805160ff191683800117855561082a565b8280016001018555821561082a579182015b8281111561082957825182559160200191906001019061080e565b5b509050610837919061083b565b5090565b61085d91905b80821115610859576000816000905550600101610841565b5090565b905600a165627a7a72305820a63124bda8758a167cad22f43b8c56bc28d133c8f768564ddc836a36ba1a4cff0029",
  "source": "pragma solidity ^0.4.21;\n\n/**\n * @title Simple implementation of decentralized trusted timestamping.\n * @author Ken Schiller\n */\ncontract Authorship {\n\n    struct Claim {\n        bool exists;\n        uint timestamp;\n        address submitter;\n        string name;\n    }\n\n    mapping (uint => Claim) public claims;\n    uint public claimCount;\n\n    // Allow the user-submitted timestamp to be up to 5 minutes in the past.\n    // This makes things easier for now. In the future, we should create claims\n    // using the miner-submitted timestamp.\n    uint ALLOWED_MARGIN_EARLY_S = 60 * 5;\n\n    // Allow the user-submitted timestamp to be up to 30 seconds in the future.\n    // This roughly corresponds to Consensys' guidelines.\n    // https://consensys.github.io/smart-contract-best-practices/recommendations/#timestamp-dependence\n    uint ALLOWED_MARGIN_LATE_S = 30;\n\n    /**\n     * @dev Emitted when a new claim is made.\n     */\n    event Claimed(\n        uint indexed fileHash, uint indexed timestamp,\n        address indexed submitter, string name);\n\n    /**\n     * @dev Submit a claim for a new file.\n     * @param _fileHash IPFS hash of the file.\n     * @param _timestamp Unix Epoch time in seconds.\n     * @param _name An optional name associated with the claim.\n     *\n     * A claim consists of an IPFS hash and a timestamp. The address of the\n     * sender is included, and a name (arbitrary string) can be included as\n     * well.\n     *\n     * The smart contract is designed so that at most one claim can exists for\n     * any file. The first claim that is made will be the only one allowed.\n     * This design decision may be revisited later.\n     */\n    function makeClaim(uint _fileHash, uint _timestamp, string _name) external {\n        // Require the timestamp to be accurate (within some threshold).\n        require(validTimestamp(_timestamp));\n\n        // Design decision: Allow a file to be claimed only once.\n        Claim storage previousClaim = claims[_fileHash];\n        require(!previousClaim.exists);\n\n        // Save the claim and emit an event.\n        //\n        // Design decision: Use the user-submitted timestamp. This simplifies\n        // things for now.\n        claims[_fileHash] = Claim(true, _timestamp, msg.sender, _name);\n        claimCount++;\n        emit Claimed(_fileHash, _timestamp, msg.sender, _name);\n    }\n\n    /**\n     * @dev Submit information about an existing claim for verification.\n     * @param _fileHash IPFS hash of the file.\n     * @param _timestamp Unix Epoch time in seconds.\n     * @param _address Address of the claim creator.\n     * @param _name Name associated with the claim.\n     * @return isValid Boolean indicating whether the claim is valid.\n     *\n     * Trusted digital timestamps are useful to more people if they can be\n     * displayed publicly and easily verified. We provide a public function\n     * which verifies an existing claim. All parameters must match exactly.\n     */\n    function verifyClaim(\n        uint _fileHash, uint _timestamp, address _address, string _name)\n    public view\n    returns(bool) {\n        Claim storage claim = claims[_fileHash];\n        return (\n            claim.exists && claim.timestamp == _timestamp &&\n            claim.submitter == _address && stringsEqual(claim.name, _name));\n    }\n\n    /**\n     * @dev Determine whether a user-submitted timestamp is within the\n     *   accepted bounds.\n     * @param _userTimestamp Unix Epoch time in seconds.\n     * @return isValid Boolean indicating whether the timestamp is valid.\n     *\n     * When creating a claim, the smart contract uses a timestamp supplied by\n     * the user. This simplifies things a bit for the user and client web app\n     * since the timestamp that will be used in the claim is known at the time\n     * that the transaction is first created.\n     *\n     * We have to verify that the user-supplied timestamp is very close to the\n     * miner's timestamp, to prevent the user from submitting entirely false\n     * timestamps.\n     *\n     * In the future the smart contract may use the miner's timestamp, which\n     * will help us to avoid any issues if a transaction takes a long time to be\n     * accepted.\n     */\n    function validTimestamp(uint _userTimestamp) private view returns(bool) {\n        // Calculate the offset relative to the miner's timestamp.\n        uint minerTimestamp = block.timestamp;\n\n        // Check that the offset is within the allowed margins.\n        // Be wary of integer overflow.\n        if (_userTimestamp > minerTimestamp) {\n            return _userTimestamp - minerTimestamp <= ALLOWED_MARGIN_LATE_S;\n        } else {\n            return minerTimestamp - _userTimestamp <= ALLOWED_MARGIN_EARLY_S;\n        }\n    }\n\n    /**\n     * @dev Compare a string in storage with a string in memory.\n     * @param _a A string in storage.\n     * @param _b A string in memory.\n     * @return areEqual Boolean indicating whether the two strings are equal.\n     *\n     * Thanks to dave123124, https://forum.ethereum.org/discussion/3238/string-compare-in-solidity\n     **/\n    function stringsEqual(string storage _a, string memory _b)\n    internal view\n    returns (bool) {\n        bytes storage a = bytes(_a);\n        bytes memory b = bytes(_b);\n        if (a.length != b.length) {\n            return false;\n        }\n        for (uint i = 0; i < a.length; i++) {\n            if (a[i] != b[i]) {\n                return false;\n            }\n        }\n        return true;\n    }\n}\n",
  "sourcePath": "/Users/kschiller/projects/authorship/contracts/Authorship.sol",
  "compiler": {
    "name": "solc",
    "version": "0.4.24+commit.e67f0147.Emscripten.clang"
  },
  "schemaVersion": "2.0.1",
  "updatedAt": "2018-08-28T08:10:19.575Z"
}